:020000040000fa
:080000000001040000000000f3
:020000040000fa
:040008008002000072
:020000040000fa
:04000c00800200006e
:020000040000fa
:04001000800200006a
:020000040000fa
:040014008002000066
:020000040000fa
:040018008002000062
:020000040000fa
:04001c00800200005e
:020000040000fa
:04002000800200005a
:020000040000fa
:040024008002000056
:020000040000fa
:040028008002000052
:020000040000fa
:04002c00800200004e
:020000040000fa
:04003000800200004a
:020000040000fa
:0400340020020000a6
:020000040000fa
:040038008002000042
:020000040000fa
:04003c00800200003e
:020000040000fa
:04004000800200003a
:020000040000fa
:040044008002000036
:020000040000fa
:040048008002000032
:020000040000fa
:04004c00800200002e
:020000040000fa
:04005000800200002a
:020000040000fa
:040054008002000026
:020000040000fa
:040058008002000022
:020000040000fa
:04005c00800200001e
:020000040000fa
:04006000800200001a
:020000040000fa
:040064008002000016
:020000040000fa
:040068008002000012
:020000040000fa
:04006c00800200000e
:020000040000fa
:04007000800200000a
:020000040000fa
:040074008002000006
:020000040000fa
:040078008002000002
:020000040000fa
:04007c0080020000fe
:020000040000fa
:0400800080020000fa
:020000040000fa
:0400840080020000f6
:020000040000fa
:0400880080020000f2
:020000040000fa
:04008c0080020000ee
:020000040000fa
:0400900080020000ea
:020000040000fa
:0400940080020000e6
:020000040000fa
:0400980080020000e2
:020000040000fa
:04009c0080020000de
:020000040000fa
:0400a000500200000a
:020000040000fa
:0400a40080020000d6
:020000040000fa
:0400a80080020000d2
:020000040000fa
:0400ac0080020000ce
:020000040000fa
:0400b00080020000ca
:020000040000fa
:0400b40080020000c6
:020000040000fa
:0400b80080020000c2
:020000040000fa
:0400bc0080020000be
:020000040000fa
:0400c00080020000ba
:020000040000fa
:0400c40080020000b6
:020000040000fa
:0400c80080020000b2
:020000040000fa
:0400cc0080020000ae
:020000040000fa
:0400d00080020000aa
:020000040000fa
:0400d40080020000a6
:020000040000fa
:0400d80080020000a2
:020000040000fa
:0400dc00800200009e
:020000040000fa
:0400e000800200009a
:020000040000fa
:0400e4008002000096
:020000040000fa
:0400e8008002000092
:020000040000fa
:0400ec00800200008e
:020000040000fa
:0400f000800200008a
:020000040000fa
:0400f4008002000086
:020000040000fa
:0400f8008002000082
:020000040000fa
:0400fc00800200007e
:020000040000fa
:040100008002000079
:020000040000fa
:040104008002000075
:020000040000fa
:040108008002000071
:020000040000fa
:04010c00800200006d
:020000040000fa
:040110008002000069
:020000040000fa
:040114008002000065
:020000040000fa
:040118008002000061
:020000040000fa
:04011c00800200005d
:020000040000fa
:040120008002000059
:020000040000fa
:040124008002000055
:020000040000fa
:040128008002000051
:020000040000fa
:04012c00800200004d
:020000040000fa
:040130008002000049
:020000040000fa
:040134008002000045
:020000040000fa
:040138008002000041
:020000040000fa
:04013c00800200003d
:020000040000fa
:040140008002000039
:020000040000fa
:040144008002000035
:020000040000fa
:040148008002000031
:020000040000fa
:04014c00800200002d
:020000040000fa
:040150008002000029
:020000040000fa
:040154008002000025
:020000040000fa
:040158008002000021
:020000040000fa
:04015c00800200001d
:020000040000fa
:040160008002000019
:020000040000fa
:040164008002000015
:020000040000fa
:040168008002000011
:020000040000fa
:04016c00800200000d
:020000040000fa
:040170008002000009
:020000040000fa
:040174008002000005
:020000040000fa
:040178008002000001
:020000040000fa
:04017c0080020000fd
:020000040000fa
:0401800080020000f9
:020000040000fa
:0401840080020000f5
:020000040000fa
:0401880080020000f1
:020000040000fa
:04018c0080020000ed
:020000040000fa
:0401900080020000e9
:020000040000fa
:0401940080020000e5
:020000040000fa
:0401980080020000e1
:020000040000fa
:04019c0080020000dd
:020000040000fa
:0401a00080020000d9
:020000040000fa
:0401a40080020000d5
:020000040000fa
:0401a80080020000d1
:020000040000fa
:0401ac0080020000cd
:020000040000fa
:0401b00080020000c9
:020000040000fa
:0401b40080020000c5
:020000040000fa
:0401b80080020000c1
:020000040000fa
:0401bc0080020000bd
:020000040000fa
:0401c00080020000b9
:020000040000fa
:0401c40080020000b5
:020000040000fa
:0401c80080020000b1
:020000040000fa
:0401cc0080020000ad
:020000040000fa
:0401d00080020000a9
:020000040000fa
:0401d40080020000a5
:020000040000fa
:0401d80080020000a1
:020000040000fa
:0401dc00800200009d
:020000040000fa
:0401e0008002000099
:020000040000fa
:0401e4008002000095
:020000040000fa
:0401e8008002000091
:020000040000fa
:0401ec00800200008d
:020000040000fa
:0401f0008002000089
:020000040000fa
:0401f4008002000085
:020000040000fa
:0401f8008002000081
:020000040000fa
:0401fc00800200007d
:020000040000fa
:100200002fcd20000eff27000e0188000000000007
:10021000000020000000e000020032000001200089
:100220002002880014000700b70007000000e0006b
:1002300003003a0020b22000010020000200370035
:100240000000200001002000810f7000010032003a
:1002500014000700000020000000e000020032004f
:100260000000020000000000ca12020000000000ae
:100270000040da000000fe004440a90020002000f9
:100280000000e00003003200100020009001880010
:100290004440a800000006008a1f78008b1f7800e9
:1002a00000000600a1028800800478000000eb0036
:1002b0001f003700e284440054a0b4009905ba003e
:1002c000e284440054a0b4009906ba00e2844400d9
:1002d00054a0b4000006eb00476fde00fd07b2003b
:1002e000ae018800636ce10003003a00eaff0700fa
:1002f0000000eb000e003700606ce10008003a00df
:10030000004deb000a05e800020039003420ec0043
:100310000af0a0008b05e900f9ff3e000400370059
:100320006168e100010032000086eb000b0007006d
:1003300019c7ba001905ba000e04e00003003a001c
:100340000a00e000dbff3a0000000600fe07b200f2
:10035000ae0288008a047800f5ff37000cd0a300b5
:10036000e20f4d001c00390089027800354dba00bb
:100370000a05e800020039003420ec000af0a00071
:100380008b05e9000f003200254dba000a05e80090
:10039000020039003420ec000af0a0008b05e900cf
:1003a000080032000c00e0000600320015cdba0053
:1003b0000a05e800020039003420ec000af0a00031
:1003c0008b05e9008984e80054a0b4000b00e0002c
:1003d000e2ff3a00000006009902ba00055d7800cd
:1003e0008b05e900f7ff3200c82ade00055d7800c2
:1003f0008b05e900f3ff32000c00e000f1ff320052
:1004000019ddba00eeff37000811040000000000fb
:10041000640a040000000000080a04000000000054
:10042000c00a0400000000000c0b040000000000e3
:100430004a110400000000008211040000000000c6
:100440003600f800809fbe00829fbe00849fbe00e1
:10045000869fbe003200f8003400f8001000200033
:10046000a001880010002000900188000000fa0020
:100470008860a90000418000000001000080fa00af
:100480003400f9003200f9004f03be004f02be00f5
:100490004f01be004f00be003600f90000400600cc
:1004a0003600f800809fbe00829fbe00849fbe0081
:1004b000869fbe003200f8003400f80010002000d3
:1004c000a001880010002000900188000000fa00c0
:1004d00010418000000001008bc0a9000080fa00dc
:1004e0003400f9003200f9004f03be004f02be0095
:1004f0004f01be004f00be003600f900004006006c
:0c0500000040da000000fe0000000500d2
:020000040000fa
:10050c000c00fa00000f78001107980022079800e1
:10051c003307980044079800550798009e009000f8
:10052c0041408800ae00900051408800be00900011
:10053c0061408800ce00900071408800de00900081
:10054c00814088001e0078000040780005e8b70064
:10055c000080fa00000006000000fa0012c8bf007c
:10056c000080fb00e10f50000b003200e20f500046
:10057c00290032000000e0002c003a0004c8bf0043
:10058c000004e000280032000468ef0010c0b30043
:10059c0012e8b7002500370000408000e20f500041
:1005ac0004003e00c0cfb30006e8b7001268ef00ad
:1005bc000028ef000040800080007800e0ba2000a6
:1005cc008f0607000004e0000e003200e0ba2000a5
:1005dc009040780005c8bf0080cf500004003a005e
:1005ec000668ef0020c0b30012e8b7000f00370018
:1005fc00e0cfb30006e8b7001268ef000028ef0068
:10060c000a00370000c0eb0006e8b7001268ef00e4
:10061c000028ef00050037000a0007001268ef0001
:10062c000000000001003700000000000080fa000c
:10063c00000006000000fa0006c8bf000080fa00a7
:10064c00000006000c00fa00f0ba2000104f7800f1
:10065c000000eb00100798000000eb00200798004a
:10066c000000eb00300798000000eb0040079800fa
:10067c000000eb00500798001e80fb00e40f5000b8
:10068c000a003200e40f500003003c00e30f50005e
:10069c00580032007d013700e60f5000a7003200f1
:1006ac00f00f50000a0132007801370020002000c2
:1006bc0010079800e1ba20001e0090000080400056
:1006cc00104078000080fb00c800dd001e00900088
:1006dc000000e800e2ba2000624078000080fb00d5
:1006ec0001007000200798001e0090000080e800b8
:1006fc0010079800e1ba20001e0090000080400016
:10070c00104078000080fb00c800dd001e00900047
:10071c000000e800e2ba2000624078000080fb0094
:10072c0001007000300798000028ef000228ef004d
:10073c00104080005280200012417800e1c220005d
:10074c00827078000000e8001040880010408000a3
:10075c00e1c2200042c0b300827078000000e800c3
:10076c001040880010408000be009000814078004e
:10077c0081c0400001417800e1c220008270780005
:10078c000000e800104088006440800023802000b6
:10079c00e2c22000be0090002e0090000400010078
:1007ac0011408000e0c22000e605070040079800d9
:1007bc0010408000ce00900001417800e1c2200082
:1007cc00827078000000e800104088001040800023
:1007dc00ce009000c808de0001417800e1c2200084
:1007ec00827078000000e800104088002f0107009c
:1007fc002c0137002000200010079800e1ba2000df
:10080c001e00900000804000104078000080fb002b
:10081c00c800dd001e0090000000e800e2ba2000d5
:10082c00624078000080fb000100700020079800f7
:10083c001e0090000080e80010079800e1ba20002c
:10084c001e00900000804000104078000080fb00eb
:10085c00c800dd001e0090000000e800e2ba200095
:10086c00624078000080fb000100700030079800a7
:10087c000028ef000228ef0010408000528020007a
:10088c0012417800e1c22000827078000000e8007c
:10089c001040880010408000e1c2200032c0b3003c
:1008ac00827078000000e800104088001040800042
:1008bc00be0090008140780081c04000014178006a
:1008cc00e1c22000827078000000e800104088002f
:1008dc007440800023802000e2c22000be00900003
:1008ec002e0090000400010011408000e0c22000a6
:1008fc00940507004007980010408000ce0090003f
:10090c0001417800e1c22000827078000000e8000c
:10091c001040880010408000ce009000c808de0017
:10092c0001417800e1c22000827078000000e800ec
:10093c0010408800dd000700da003700200020009e
:10094c0010079800e1ba20001e00900000804000c3
:10095c00104078000080fb00c800dd001e009000f5
:10096c000000e800e2ba2000624078000080fb0042
:10097c0001007000200798001e0090000080e80025
:10098c0010079800e1ba20001e0090000080400083
:10099c00104078000080fb00c800dd001e009000b5
:1009ac000000e800e2ba2000624078000080fb0002
:1009bc00010070005007980042408000de0090005b
:1009cc002e009000020001000028ef000228ef002a
:1009dc00104080005280200012417800e1c22000bb
:1009ec00827078000000e800104088001040800001
:1009fc00e1c2200062c0b300827078000000e80001
:100a0c001040880010408000ae009000c808de0046
:100a1c0001417800e1c22000827078000000e800fb
:100a2c001040880010408000ae009000014178001a
:100a3c00e1c22000827078000000e80010408800bd
:100a4c0010408000de009000c808de0001417800f4
:100a5c00e1c22000827078000000e800104088009d
:100a6c0010408000de00900001417800e1c22000bf
:100a7c00827078000000e80010408800114080006f
:100a8c00e0c220002f0507004007980010408000ae
:100a9c00ce00900001417800e1c220008270780005
:100aac000000e8001040880010408000ce0090004c
:100abc00c808de0001417800e1c220008270780095
:100acc000000e8001040880078000700750037002f
:100adc002000200010079800e1ba20001e009000b2
:100aec0000804000104078000080fb00c800dd0052
:100afc001e0090000000e800e2ba2000624078007e
:100b0c000080fb0001007000200798001e00900080
:100b1c000080e80010079800e1ba20001e00900049
:100b2c0000804000104078000080fb00c800dd0011
:100b3c001e0090000000e800e2ba2000624078003d
:100b4c000080fb0001007000300798001e00900030
:100b5c000080e800100798001e0090000000e800dc
:100b6c0010079800534080009e009000e0ba2000cf
:100b7c000080400000017800be0090002e00900024
:100b8c00030001000028ef000228ef001040800055
:100b9c005280200012417800e1c22000827078005f
:100bac000000e8001040880010408000e1c22000e6
:100bbc0002c1b300827078000000e8001040880089
:100bcc0010408000ae009000c808de0001417800a3
:100bdc00e1c22000827078000000e800104088001c
:100bec0010408000ae00900001417800e1c220006e
:100bfc00827078000000e8001040880010408000ef
:100c0c00be009000c808de0001417800e1c220005f
:100c1c00827078000000e8001040880010408000ce
:100c2c00be00900001417800e1c220008270780083
:100c3c000000e8001040880011408000e0c2200055
:100c4c00c00407004007980010408000ce009000c0
:100c5c0001417800e1c22000827078000000e800b9
:100c6c001040880010408000ce009000c808de00c4
:100c7c0001417800e1c22000827078000000e80099
:100c8c001040880009000700060037000028ef001c
:100c9c000228ef0010c0b30006e8b7001268ef009e
:100cac00000000000080fa00000006000000fa00be
:100cbc00824080001040800080007800e0c220005c
:100ccc00020001000228ef000080fa00000006007c
:100cdc000000fa00c5000700f0b4200010407800b6
:100cec000080fb00c800dd00e0b42000104078005c
:100cfc000080fb00010070004051880010b52000fe
:100d0c00104078000080fb00c800dd0000b520001a
:100d1c00104078000080fb000100700050518800ea
:100d2c0030b52000104078000080fb00c800dd00ca
:100d3c0020b52000104078000080fb0001007000fe
:100d4c006051880050b52000104078000080fb00f6
:100d5c00c800dd0040b52000104078000080fb008a
:100d6c00010070007051880070b5200010407800b0
:100d7c000080fb00c800dd0060b52000104078004a
:100d8c000080fb00010070008051880090b52000ad
:100d9c00104078000080fb00c800dd0080b520000a
:100dac00104078000080fb0001007000905188001a
:100dbc00b0b52000104078000080fb00c800dd00ba
:100dcc00a0b52000104078000080fb0001007000ee
:100ddc00a0518800d0b52000104078000080fb00a6
:100dec00c800dd00c0b52000104078000080fb007a
:100dfc0001007000b0518800f0b520001040780060
:100e0c000080fb00c800dd00e0b520001040780039
:100e1c000080fb0001007000c051880010b620005b
:100e2c00104078000080fb00c800dd0000b62000f8
:100e3c00104078000080fb0001007000d051880049
:100e4c0030b62000104078000080fb00c800dd00a8
:100e5c0020b62000104078000080fb0001007000dc
:100e6c00e051880050b62000104078000080fb0054
:100e7c00c800dd0040b62000104078000080fb0068
:100e8c0001007000f051880070b62000104078000e
:100e9c000080fb00c800dd0060b620001040780028
:100eac000080fb00010070000052880090b620000a
:100ebc00104078000080fb00c800dd0080b62000e8
:100ecc00104078000080fb00010070001052880078
:100edc00b0b62000104078000080fb00c800dd0098
:100eec00a0b62000104078000080fb0001007000cc
:100efc0020528800d0b62000104078000080fb0003
:100f0c00c800dd00c0b62000104078000080fb0057
:100f1c000100700030528800f0b6200010407800bc
:100f2c000080fb00c800dd00e0b620001040780017
:100f3c000080fb00010070004052880000b72000c8
:100f4c00104078000080fb00505288004151800016
:100f5c0050518000808040006051800080804000b3
:100f6c007051800080804000805180008080400063
:100f7c009051800080804000a05180008080400013
:100f8c00b051800080804000c051800080804000c3
:100f9c00d051800080804000e05180008080400073
:100fac00f051800080804000005280008080400022
:100fbc0010528000808040002052800080804000d1
:100fcc003052800080804000405280000080400001
:100fdc000000e00001003d006f0040004480de0096
:100fec00605288000080fa00000006000200fa003f
:100ffc006f02070040c1b300d6020700960207003b
:10100c000004e00024003a00c0c4b300d102070081
:10101c00910207000004e00021003a008002070062
:10102c0050c1b300cb0207008b0207000004e000a4
:10103c001d003a000000eb00000f78000b00370099
:10104c00d0020700e1b420009e8040008048780068
:10105c00100220009e007800808f500002003c009f
:10106c000040eb00860207001e0fe8002002200063
:10107c009e007800808f5000f1ff340010c0b30048
:10108c007f0207005802070021022000e0b4200074
:10109c0008000700050037000000000003003700bf
:1010ac000000000001003700000000000080fa0082
:1010bc00000006000800fa0020079800310798008d
:1010cc0050c1b3001e000700204798000000eb0041
:1010dc00000f7800090037001e007800ae00900069
:1010ec0000804000904078002e40900000c06800c6
:1010fc0013000700204798001e0fe8003e009000e8
:10110c009e007800808f5000f3ff35003e00900069
:10111c00ae00900000804000904078002e4090007f
:10112c0000c068000080fb000000ea004f00de00f9
:10113c00304798003e4090000080fa000000060006
:10114c000600fa00404798000000eb00000f780002
:10115c000c003700ce409000214798004e40900084
:10116c0000404000404798002e4090000004e000f2
:10117c0003003d004e40900070c0b2004047980004
:10118c001e0fe8001e007800e70f5000f1ff34003e
:10119c004e4090000080fa00000006000000fa00ab
:1011ac0080a220000080fa00000006000400fa0073
:1011bc00100798000040eb00004f78001e80fb00e9
:1011cc009e009000a110900000014000e0ca200099
:1011dc0000004100010878001e4fe8001e80fb0053
:1011ec009e0090009100780000014000e0ca2000b1
:1011fc0000004100010878001e4fe8001e80fb0033
:10120c009e0090009100900000014000e0ca200078
:10121c0000004100010878001e4fe8001e80fb0012
:10122c009e009000a100900000014000e0ca200048
:10123c0000004100010878001e4fe8001e80fb00f2
:10124c009e009000b100900000014000e0ca200018
:10125c0000004100010878001e4fe8001e80fb00d2
:10126c009e009000c100900000014000e0ca2000e8
:10127c0000004100010878001e4fe8001e80fb00b2
:10128c009e009000d100900000014000e0ca2000b8
:10129c0000004100010878001e4fe8001e80fb0092
:1012ac009e009000e100900000014000e0ca200088
:1012bc0000004100010878001e4fe8001e80fb0072
:1012cc009e009000f100900000014000e0ca200058
:1012dc0000004100010878001e4fe8001e80fb0052
:1012ec009e0090008108900000014000e0ca2000a0
:1012fc0000004100010878001e4fe8001e80fb0032
:10130c009e0090009108900000014000e0ca20006f
:10131c0000004100010878001e4fe8001e80fb0011
:10132c009e009000a108900000014000e0ca20003f
:10133c0000004100010878001e4fe8001e80fb00f1
:10134c009e009000b108900000014000e0ca20000f
:10135c0000004100010878001e4fe8001e80fb00d1
:10136c009e009000c108900000014000e0ca2000df
:10137c0000004100010878001e4fe8001e80fb00b1
:10138c009e009000d108900000014000e0ca2000af
:10139c0000004100010878001e4fe8001e80fb0091
:1013ac009e009000e108900000014000e0ca20007f
:1013bc0000004100010878001e4fe8001e80fb0071
:1013cc009e009000f108900000014000e0ca20004f
:1013dc0000004100010878001e4fe8001e80fb0051
:1013ec009e0090008110900000014000e0ca200097
:1013fc0000004100010878001e4fe8000080fa0050
:10140c00000006000a00fa00100798002107980057
:10141c0032079800430798009e009000010f780057
:10142c001e0037004e00900010007800be009000a7
:10143c00008140009e00780081814000e1ca2000bc
:10144c008180410091007800c808de00814078005e
:10145c00014978008000e8004e00900001087800f7
:10146c004e00900010007800be00900000814000fb
:10147c009e00780081814000e1ca200081804100fb
:10148c009100780081407800014978008000e800e4
:10149c004e009000010878001e0fe8009e007800b6
:1014ac001e0190002e00900000004100808f500023
:1014bc00dcff39000080fa00000006000a00fa0088
:1014cc0010079800210798003207980043079800ee
:1014dc009e009000010f78001e0037004e00900017
:1014ec0010007800be009000008140009e00780043
:1014fc008181400061822000818041009100780050
:10150c00c808de0081407800014978008000e800be
:10151c004e009000010878004e00900010007800fa
:10152c00be009000008140009e0078008181400048
:10153c006182200081804100910078008140780018
:10154c00014978008000e8004e0090000108780006
:10155c001e0fe8009e0078001e0190002e009000e7
:10156c0000004100808f5000dcff39000080fa0041
:10157c00000006000a00fa002007980031079800c6
:10158c00420798000000eb00000f7800ae009000be
:10159c0011079800150037004e0090001e00400007
:1015ac00104078000080fb00c800dd001e00e80041
:1015bc004e01900000004100104078000080fb00bc
:1015cc0001007000800078001e00900000014000b7
:1015dc006082200000004100010878001e8fe800a6
:1015ec001e0090000000e80010079800ae0090006c
:1015fc003e009000808040001e009000808f5000c4
:10160c00e5ff3e000080fa00000006000400fa002e
:10161c00000f7800110798001e0078008000400031
:10162c0060822000008040009e009000010878003d
:08163c000080fa000000060026
:020000040000fa
:10164400ae0b000000010000800000000008000054
:1016540014000000800000002808000000020000c0
:101664008200000000c181004001c00080410100ef
:10167400c080410000c181004001c00080410000e1
:10168400c181400000c181004001c00080410100cf
:10169400c080410000c181004000c10081400100c0
:1016a400c080410000c181004001c00080410100b0
:1016b400c080410000c181004001c00080410000a1
:1016c400c181400000c181004001c0008041000090
:1016d400c181400001c080004101c0008041000080
:1016e400c181400000c181004001c000804101006f
:1016f400c080410000c181004001c0008041000061
:10170400c181400000c181004001c000804101004e
:10171400c080410000c181004000c100814001003f
:10172400c080410000c181004001c000804101002f
:10173400c080410000c181004000c100814001001f
:10174400c080410001c080004100c100814001000f
:10175400c080410000c181004000c10081400100ff
:10176400c080410000c181004001c00080410100ef
:10177400c080410000c181004001c00080410000e0
:10178400c181400000c181004001c00080410100ce
:10179400c080410000c181004000c10081400100bf
:1017a400c080410000c181004001c00080410100af
:1017b400c080410000c181004000c000c101c300dd
:1017c4000302c200c6060700c705c500c404cc0056
:1017d4000c0dcd000fcfce000e0aca00cb0bc900f2
:1017e4000908c800d8181900d91bdb00da1a1e0032
:1017f400dedf1f00dd1d1c00dc14d400d515d7006e
:101804001716d600d2121300d311d100d010f00055
:101814003031f10033f3f2003236f600f737f500d9
:101824003534f4003cfcfd003dff3f003efefa0071
:101834003a3bfb0039f9f8003828e800e929eb00c5
:101844002b2aea00ee2e2f00ef2ded00ec2ce40005
:101854002425e50027e7e6002622e200e323e10051
:101864002120e000a0606100a163a300a2626600e1
:10187400a6a76700a5656400a46cac00ad6daf00bd
:101884006f6eae00aa6a6b00ab69a900a868780005
:10189400b8b97900bb7b7a00babe7e007fbf7d00f9
:1018a400bdbc7c00b4747500b577b700b676720021
:1018b400b2b37300b1717000b050900091519300b5
:1018c40053529200965657009755950094549c0095
:1018d4005c5d9d005f9f9e005e5a9a009b5b990031
:1018e4005958980088484900894b8b008a4a4e0011
:1018f4008e8f4f008d4d4c008c44840085458700ad
:1019040047468600824243008341810080400000b4
:1019140024080000020000008000000014080000f9
:101924000600000080000000200800000400000001
:1019340080000000ae0c00002400000080000000c5
:10194400260800000200000080000000280a0000b1
:1019540086010000800000001a0800000600000054
:081964008000000000000000fb
:020000040000fa
:10196c000000fa009c24ef009e24ef009a24ef0064
:10197c009b24a800e0042000c02488008a20a90031
:10198c000080fa00000006000000fa009be4a800aa
:10199c008a20a9000080fa00000006000000fa006e
:1019ac009be4a9008a20a9000080fa000000060030
:1019bc000000fa0000000000570007000004e000df
:1019cc00fdff3a009a04a8000000000050048000bb
:1019dc00620060000000e000fcff32008a20a900d9
:1019ec000080fa00000006000000fa000000000071
:1019fc00490007000004e000fdff3a009a44a800eb
:101a0c000000000050048000620060000000e00054
:101a1c00fcff32008a20a9000080fa0000000600ba
:101a2c000000fa00000000003b0007000004e0008a
:101a3c00fdff3a009a24a80000000000500480002a
:101a4c00620060000000e000fcff32008a20a90068
:101a5c000080fa00000006000000fa000000000000
:101a6c002d0007000004e000fdff3a00f024800088
:101a7c004f00de00004078000080fa0000000600f5
:101a8c000200fa00004f780000000000220007005e
:101a9c000004e000fdff3a009e40780061c0600049
:101aac000080fb00610060004500dd00d124800057
:101abc000150a10001007000d02488009a84a80075
:101acc000000000050048000620060000000e00094
:101adc00fcff32008a20a9000080fa0000000600fa
:101aec000000fa00000000000b0007000004e000fa
:101afc00fdff3a009a64a80000000000500480002a
:101b0c00620060000000e000fcff32008a20a900a7
:101b1c000080fa00000006000000fa00f0248000ab
:101b2c004e00de00614060008080fb00d02480000d
:101b3c00008060007f00600000f0a7000000ea0059
:101b4c000000ea004f00de00004078000080fa0040
:101b5c00000006000200fa00004f78001e80fb0017
:101b6c00b024880000000000500480006200600077
:101b7c000000e000fcff32008a20a9000080fa007f
:101b8c00000006000000fa00d5ff0700a02480002a
:101b9c00004078000080fa00000006000000fa0007
:101bac00aa24ef00ab24a800ac24ef0020012000f5
:101bbc00402588008e40a9000080fa000000060035
:101bcc000000fa00abe4a8008e40a9000080fa00e7
:101bdc00000006000000fa00abe4a9008e40a9004a
:101bec000080fa00000006000000fa00000000006f
:101bfc00570007000004e000fdff3a00aa04a8000b
:101c0c000000000070048000640060000000e00030
:101c1c00fcff32008e40a9000080fa000000060094
:101c2c000000fa0000000000490007000004e0007a
:101c3c00fdff3a00aa44a8000000000070048000d8
:101c4c00640060000000e000fcff32008e40a90040
:101c5c000080fa00000006000000fa0000000000fe
:101c6c003b0007000004e000fdff3a00aa24a80096
:101c7c000000000070048000640060000000e000c0
:101c8c00fcff32008e40a9000080fa000000060024
:101c9c000000fa00000000002d0007000004e00026
:101cac00fdff3a00702580004f00de0000407800f8
:101cbc000080fa00000006000200fa00004f7800d5
:101ccc0000000000220007000004e000fdff3a00c5
:101cdc009e40780061c060000080fb0061006000e5
:101cec004500dd00512580000150a100010070006d
:101cfc0050258800aa84a800000000007004800011
:101d0c00640060000000e000fcff32008e40a9007f
:101d1c000080fa00000006000000fa00000000003d
:101d2c000b0007000004e000fdff3a00aa64a800c5
:101d3c000000000070048000640060000000e000ff
:101d4c00fcff32008e40a9000080fa000000060063
:101d5c000000fa00702580004e00de00614060003b
:101d6c008080fb0050258000008060007f006000b8
:101d7c0000f0a7000000ea000000ea004f00de00bf
:101d8c00004078000080fa00000006000200fa0013
:101d9c00004f78001e80fb003025880000000000fa
:101dac0070048000640060000000e000fcff320062
:101dbc008e40a9000080fa00000006000000fa0026
:101dcc00d5ff070020258000004078000080fa0035
:101ddc00000006000000fa007a26ef008e26ef00c5
:101dec00a226ef00b626ef00ca26ef00de26ef0093
:101dfc000080eb00b03388000080eb00503488008a
:101e0c000080eb00f03488000080eb0090358800f7
:101e1c000080eb00303688000080eb00d036880064
:101e2c007e26ef009226ef00a626ef00ba26ef00e2
:101e3c00ce26ef00e226ef00c606a900ca06a800cf
:101e4c009e06a8007e46a8007e66a8007e86a80096
:101e5c007ea6a800020007000080fa000000060021
:101e6c000000fa0001088000f00b200000816000e7
:101e7c0060042000710520000310200080497800c8
:101e8c008149780082497800b13d800000fc2f0028
:101e9c00008060001001b300b03d8800a13d8000bf
:101eac0000fc2f0000806000e001b300a03d880022
:101ebc00f13e800000f82f00008060005000b3005d
:101ecc00f03e8800213f800000f82f000080600069
:101edc003000b300203f8800c13d800000fc2f0083
:101eec0000806000a001b300c03d8800313f80003d
:101efc00f00f28008080600000702000010070004e
:101f0c00303f8800413f8000f00f280000806000c7
:101f1c0000b0a000403f880000088000000178005d
:101f2c000260a00060042000710520000310200056
:101f3c008049780081497800824978000080fa0055
:101f4c00000006000800fa002007980031079800ee
:101f5c0000c0eb00004f780000c0eb001047980069
:101f6c000000eb0010079800130037002e009000c3
:101f7c00904078001e40900000c068000080fb007c
:101f8c00100798002e0090000000e8002007980031
:101f9c00818220001e0090000080400010407800dc
:101fac001e40680010479800819220001e0090008f
:101fbc0000804000104f78003e00900000f0a70019
:101fcc000000ea000000ea004f00de00004078004c
:101fdc00be0090008100e900310798000004e00089
:101fec00e2ff3a001e80fb00c800dd001e4090009e
:101ffc000080fb00010070000080fa000000060069
:10200c000800fa0020079800310798003e00900065
:10201c008080e9002e009000caff0700000f7800b6
:10202c001e007800204798001e0078004800de0053
:10203c00304798003e0090000080e900ae00900010
:10204c0000804000904078002e40900080cf5000df
:10205c000a003a003e0090000000e900ae0090003b
:10206c0000804000904078003e40900080cf5000af
:10207c0002003a0010c0b300010037000040eb0032
:10208c000080fa00000006000000fa009823ef0020
:10209c009863a800f0192000001d88009a23ef0017
:1020ac00a223ef0099e3a8009b43a8009b83a80000
:1020bc000080fa00000006000200fa00004f7800d1
:1020cc001e80fb00e01c880000000000d11c80007a
:1020dc0000102000008060000000e000fbff3200d8
:1020ec000080fa00000006000200fa00000f7800e1
:1020fc00040037001e00780010407800eeff070047
:10210c001e0fe8001e007800104078000004e0006c
:10211c00f8ff3a000080fa00000006000400fa0004
:10212c00000f780011079800040037001e0078009b
:10213c0010407800e0ff07001e0fe8001e00900022
:10214c0000f0a7000000ea000000ea004f00de00eb
:10215c00004078009e0090008100e9001107980073
:10216c000004e000f1ff3a000080fa0000000600d5
:10217c000000fa00ae23ef00ae63a800f0192000b7
:10218c00b01d8800b023ef00b823ef00afe3a80028
:10219c00b143a800b183a8000080fa00000006003b
:1021ac000200fa00004f78001e80fb00901d880092
:1021bc0000000000811d80000010200000806000e5
:1021cc000000e000fbff32000080fa000000060077
:1021dc000200fa00000f7800040037001e0078009f
:1021ec0010407800eeff07001e0fe8001e0078007c
:1021fc00104078000004e000f8ff3a000080fa007c
:10220c00000006000400fa00000f78001107980087
:10221c00040037001e00780010407800e0ff070033
:10222c001e0fe8001e00900000f0a7000000ea005e
:10223c000000ea004f00de00004078009e00900095
:10224c008100e900110798000004e000f1ff3a005a
:10225c000080fa00000006000000fa008860a90067
:10226c009860a8008bc0a9009bc0a80095e1a800ad
:10227c00a0142100a100070020182100a5000700d0
:10228c000080fa00000006000000fa0018c8bf0029
:10229c000004e00013003200a0408000b140800038
:1022ac0061004000e0804800a0408800b1408800f8
:1022bc00a2408000b34080003000200001002000cc
:1022cc00800f5100818f5900080036001428ef0050
:1022dc001628ef001868ef0010c0b30004e8b70030
:1022ec00020037001428ef001628ef008860a900c0
:1022fc000080fa00000006000000fa0010c0b300d5
:10230c0018e8b7001428ef001628ef0000408000f2
:10231c00a11d800001417800e1ba20008270780094
:10232c000000e800004088008bc0a9000080fa0083
:10233c00000006000000fa00c7ff0700851021000e
:10234c0044a6200083a0200002ac2000c1b02000d5
:10235c00200020006af807000080fa000000060048
:10236c000000fa00f3ff070087fd0700c0262000dd
:10237c002d00070078f8070003000700c0122000aa
:10238c0029000700fbff37000000fa002041800005
:10239c00e10f50000a003200e10f50000500390037
:1023ac00e20f500009003200e30f50000b00320026
:1023bc000f00370010002000204188000c0037006f
:1023cc0020002000204188000900370040fa070057
:1023dc003000200020418800050037006ffb07000b
:1023ec0072fb070010002000204188000000000054
:1023fc000080fa00000006000000fa00a021ef00a7
:10240c00010d8000f0fc2f00008060000040a00057
:10241c00000d88009621ef00007d2000e00c880064
:10242c000080fa00000006000400fa001007980073
:10243c0088e0a900a1e1a8000000eb00000f7800e3
:10244c000800370000000000410480000008200054
:10245c00008060000000e000fbff320088e0a90073
:10246c001e0fe8001e0090009e0f5000f5ff3e006e
:10247c00a1e1a9000080fa00000006000000fa00ab
:10248c00f423ef000024ef000224ef00f5e3a90091
:10249c003000200020208800fcc3a900f4a3a80071
:1024ac00f4c3a800f503a900f5e3a8000080fa0026
:1024bc00000006000200fa00004f78000000000047
:1024cc00e01f8000620060000000e000fcff3a00aa
:1024dc001e80fb000020880000000000e01f800030
:1024ec00610060000000e000fcff32000020800072
:1024fc00004078000080fa00000006000200fa009c
:10250c00000f78009e007800014188000080fa00de
:10251c00000006000200fa00000f78009e00780010
:10252c00114188000080fa00000006000000fa004b
:10253c009421ef00a10c8000f0fc2f0000806000c3
:10254c000040a000a00c88009021ef00007d20002e
:10255c00900c88000080fa00000006000000fa00d1
:10256c001cfe0700f1ff0700a3ff0700c6fe0700d3
:10257c00fffe0700fafc070088fd0700bfff0700fd
:10258c000080fa00000006000000fa00f3ff0700cc
:10259c0073ff07000000eb000080fa00000006004b
:020000040000fa
:020000040002f8
:04be0000ffffff0041
:020000040000fa
:020000040002f8
:04be2000ff1f000000
:020000040000fa
:020000040002f8
:04be3000e3ffff002d
:020000040000fa
:020000040002f8
:04be3800beffff004a
:020000040000fa
:020000040002f8
:04be40009fffff0061
:020000040000fa
:020000040002f8
:04be4800ffffff00f9
:020000040000fa
:020000040002f8
:04be5000dfffff0011
:020000040000fa
:020000040002f8
:04be5800ffffff00e9
:00000001FF
